{
  "_format": "hh-sol-artifact-1",
  "contractName": "NFTMarketplace",
  "sourceName": "contracts/NFT_marketplace.sol",
  "abi": [
    {
      "inputs": [],
      "stateMutability": "nonpayable",
      "type": "constructor"
    },
    {
      "anonymous": false,
      "inputs": [
        {
          "indexed": true,
          "internalType": "address",
          "name": "owner",
          "type": "address"
        },
        {
          "indexed": true,
          "internalType": "address",
          "name": "approved",
          "type": "address"
        },
        {
          "indexed": true,
          "internalType": "uint256",
          "name": "tokenId",
          "type": "uint256"
        }
      ],
      "name": "Approval",
      "type": "event"
    },
    {
      "anonymous": false,
      "inputs": [
        {
          "indexed": true,
          "internalType": "address",
          "name": "owner",
          "type": "address"
        },
        {
          "indexed": true,
          "internalType": "address",
          "name": "operator",
          "type": "address"
        },
        {
          "indexed": false,
          "internalType": "bool",
          "name": "approved",
          "type": "bool"
        }
      ],
      "name": "ApprovalForAll",
      "type": "event"
    },
    {
      "anonymous": false,
      "inputs": [
        {
          "indexed": true,
          "internalType": "uint256",
          "name": "tokenID",
          "type": "uint256"
        },
        {
          "indexed": false,
          "internalType": "address",
          "name": "seller",
          "type": "address"
        },
        {
          "indexed": false,
          "internalType": "address",
          "name": "owner",
          "type": "address"
        },
        {
          "indexed": false,
          "internalType": "uint256",
          "name": "price",
          "type": "uint256"
        },
        {
          "indexed": false,
          "internalType": "bool",
          "name": "sold",
          "type": "bool"
        }
      ],
      "name": "IDMarketItemCreated",
      "type": "event"
    },
    {
      "anonymous": false,
      "inputs": [
        {
          "indexed": true,
          "internalType": "address",
          "name": "from",
          "type": "address"
        },
        {
          "indexed": true,
          "internalType": "address",
          "name": "to",
          "type": "address"
        },
        {
          "indexed": true,
          "internalType": "uint256",
          "name": "tokenId",
          "type": "uint256"
        }
      ],
      "name": "Transfer",
      "type": "event"
    },
    {
      "inputs": [
        {
          "internalType": "address",
          "name": "to",
          "type": "address"
        },
        {
          "internalType": "uint256",
          "name": "tokenId",
          "type": "uint256"
        }
      ],
      "name": "approve",
      "outputs": [],
      "stateMutability": "nonpayable",
      "type": "function"
    },
    {
      "inputs": [
        {
          "internalType": "address",
          "name": "owner",
          "type": "address"
        }
      ],
      "name": "balanceOf",
      "outputs": [
        {
          "internalType": "uint256",
          "name": "",
          "type": "uint256"
        }
      ],
      "stateMutability": "view",
      "type": "function"
    },
    {
      "inputs": [
        {
          "internalType": "uint256",
          "name": "tokenID",
          "type": "uint256"
        }
      ],
      "name": "createMarketSale",
      "outputs": [],
      "stateMutability": "payable",
      "type": "function"
    },
    {
      "inputs": [
        {
          "internalType": "string",
          "name": "tokenURI",
          "type": "string"
        },
        {
          "internalType": "uint256",
          "name": "price",
          "type": "uint256"
        }
      ],
      "name": "createToken",
      "outputs": [
        {
          "internalType": "uint256",
          "name": "",
          "type": "uint256"
        }
      ],
      "stateMutability": "payable",
      "type": "function"
    },
    {
      "inputs": [],
      "name": "fetchItemsListed",
      "outputs": [
        {
          "components": [
            {
              "internalType": "uint256",
              "name": "tokenID",
              "type": "uint256"
            },
            {
              "internalType": "address payable",
              "name": "seller",
              "type": "address"
            },
            {
              "internalType": "address payable",
              "name": "owner",
              "type": "address"
            },
            {
              "internalType": "uint256",
              "name": "price",
              "type": "uint256"
            },
            {
              "internalType": "bool",
              "name": "sold",
              "type": "bool"
            }
          ],
          "internalType": "struct NFTMarketplace.MarketItem[]",
          "name": "",
          "type": "tuple[]"
        }
      ],
      "stateMutability": "view",
      "type": "function"
    },
    {
      "inputs": [],
      "name": "fetchMarketItem",
      "outputs": [
        {
          "components": [
            {
              "internalType": "uint256",
              "name": "tokenID",
              "type": "uint256"
            },
            {
              "internalType": "address payable",
              "name": "seller",
              "type": "address"
            },
            {
              "internalType": "address payable",
              "name": "owner",
              "type": "address"
            },
            {
              "internalType": "uint256",
              "name": "price",
              "type": "uint256"
            },
            {
              "internalType": "bool",
              "name": "sold",
              "type": "bool"
            }
          ],
          "internalType": "struct NFTMarketplace.MarketItem[]",
          "name": "",
          "type": "tuple[]"
        }
      ],
      "stateMutability": "view",
      "type": "function"
    },
    {
      "inputs": [],
      "name": "fetchMyNFT",
      "outputs": [
        {
          "components": [
            {
              "internalType": "uint256",
              "name": "tokenID",
              "type": "uint256"
            },
            {
              "internalType": "address payable",
              "name": "seller",
              "type": "address"
            },
            {
              "internalType": "address payable",
              "name": "owner",
              "type": "address"
            },
            {
              "internalType": "uint256",
              "name": "price",
              "type": "uint256"
            },
            {
              "internalType": "bool",
              "name": "sold",
              "type": "bool"
            }
          ],
          "internalType": "struct NFTMarketplace.MarketItem[]",
          "name": "",
          "type": "tuple[]"
        }
      ],
      "stateMutability": "view",
      "type": "function"
    },
    {
      "inputs": [
        {
          "internalType": "uint256",
          "name": "tokenId",
          "type": "uint256"
        }
      ],
      "name": "getApproved",
      "outputs": [
        {
          "internalType": "address",
          "name": "",
          "type": "address"
        }
      ],
      "stateMutability": "view",
      "type": "function"
    },
    {
      "inputs": [],
      "name": "getListingPrice",
      "outputs": [
        {
          "internalType": "uint256",
          "name": "",
          "type": "uint256"
        }
      ],
      "stateMutability": "view",
      "type": "function"
    },
    {
      "inputs": [
        {
          "internalType": "address",
          "name": "owner",
          "type": "address"
        },
        {
          "internalType": "address",
          "name": "operator",
          "type": "address"
        }
      ],
      "name": "isApprovedForAll",
      "outputs": [
        {
          "internalType": "bool",
          "name": "",
          "type": "bool"
        }
      ],
      "stateMutability": "view",
      "type": "function"
    },
    {
      "inputs": [],
      "name": "name",
      "outputs": [
        {
          "internalType": "string",
          "name": "",
          "type": "string"
        }
      ],
      "stateMutability": "view",
      "type": "function"
    },
    {
      "inputs": [
        {
          "internalType": "uint256",
          "name": "tokenId",
          "type": "uint256"
        }
      ],
      "name": "ownerOf",
      "outputs": [
        {
          "internalType": "address",
          "name": "",
          "type": "address"
        }
      ],
      "stateMutability": "view",
      "type": "function"
    },
    {
      "inputs": [
        {
          "internalType": "uint256",
          "name": "tokenID",
          "type": "uint256"
        },
        {
          "internalType": "uint256",
          "name": "price",
          "type": "uint256"
        }
      ],
      "name": "resellToken",
      "outputs": [],
      "stateMutability": "payable",
      "type": "function"
    },
    {
      "inputs": [
        {
          "internalType": "address",
          "name": "from",
          "type": "address"
        },
        {
          "internalType": "address",
          "name": "to",
          "type": "address"
        },
        {
          "internalType": "uint256",
          "name": "tokenId",
          "type": "uint256"
        }
      ],
      "name": "safeTransferFrom",
      "outputs": [],
      "stateMutability": "nonpayable",
      "type": "function"
    },
    {
      "inputs": [
        {
          "internalType": "address",
          "name": "from",
          "type": "address"
        },
        {
          "internalType": "address",
          "name": "to",
          "type": "address"
        },
        {
          "internalType": "uint256",
          "name": "tokenId",
          "type": "uint256"
        },
        {
          "internalType": "bytes",
          "name": "data",
          "type": "bytes"
        }
      ],
      "name": "safeTransferFrom",
      "outputs": [],
      "stateMutability": "nonpayable",
      "type": "function"
    },
    {
      "inputs": [
        {
          "internalType": "address",
          "name": "operator",
          "type": "address"
        },
        {
          "internalType": "bool",
          "name": "approved",
          "type": "bool"
        }
      ],
      "name": "setApprovalForAll",
      "outputs": [],
      "stateMutability": "nonpayable",
      "type": "function"
    },
    {
      "inputs": [
        {
          "internalType": "bytes4",
          "name": "interfaceId",
          "type": "bytes4"
        }
      ],
      "name": "supportsInterface",
      "outputs": [
        {
          "internalType": "bool",
          "name": "",
          "type": "bool"
        }
      ],
      "stateMutability": "view",
      "type": "function"
    },
    {
      "inputs": [],
      "name": "symbol",
      "outputs": [
        {
          "internalType": "string",
          "name": "",
          "type": "string"
        }
      ],
      "stateMutability": "view",
      "type": "function"
    },
    {
      "inputs": [
        {
          "internalType": "uint256",
          "name": "tokenId",
          "type": "uint256"
        }
      ],
      "name": "tokenURI",
      "outputs": [
        {
          "internalType": "string",
          "name": "",
          "type": "string"
        }
      ],
      "stateMutability": "view",
      "type": "function"
    },
    {
      "inputs": [
        {
          "internalType": "address",
          "name": "from",
          "type": "address"
        },
        {
          "internalType": "address",
          "name": "to",
          "type": "address"
        },
        {
          "internalType": "uint256",
          "name": "tokenId",
          "type": "uint256"
        }
      ],
      "name": "transferFrom",
      "outputs": [],
      "stateMutability": "nonpayable",
      "type": "function"
    },
    {
      "inputs": [
        {
          "internalType": "uint256",
          "name": "_listingPrice",
          "type": "uint256"
        }
      ],
      "name": "updateListingPrice",
      "outputs": [],
      "stateMutability": "payable",
      "type": "function"
    }
  ],
  "bytecode": "0x6080604052660aa87bee5380006009553480156200001c57600080fd5b506040518060400160405280600981526020017f4e465420546f6b656e00000000000000000000000000000000000000000000008152506040518060400160405280600581526020017f4d794e465400000000000000000000000000000000000000000000000000000081525081600090816200009a919062000355565b508060019081620000ac919062000355565b5050503373ffffffffffffffffffffffffffffffffffffffff16600a60009054906101000a905050506200043c565b600081519050919050565b7f4e487b7100000000000000000000000000000000000000000000000000000000600052604160045260246000fd5b7f4e487b7100000000000000000000000000000000000000000000000000000000600052602260045260246000fd5b600060028204905060018216806200015d57607f821691505b60208210810362000173576200017262000115565b5b50919050565b60008190508160005260206000209050919050565b60006020601f8301049050919050565b600082821b905092915050565b600060088302620001dd7fffffffffffffffffffffffffffffffffffffffffffffffffffffffffffffffff826200019e565b620001e986836200019e565b95508019841693508086168417925050509392505050565b6000819050919050565b6000819050919050565b600062000236620002306200022a8462000201565b6200020b565b62000201565b9050919050565b6000819050919050565b620002528362000215565b6200026a62000261826200023d565b848454620001ab565b825550505050565b600090565b6200028162000272565b6200028e81848462000247565b505050565b5b81811015620002b657620002aa60008262000277565b60018101905062000294565b5050565b601f8211156200030557620002cf8162000179565b620002da846200018e565b81016020851015620002ea578190505b62000302620002f9856200018e565b83018262000293565b50505b505050565b600082821c905092915050565b60006200032a600019846008026200030a565b1980831691505092915050565b600062000345838362000317565b9150826002028217905092915050565b6200036082620000db565b67ffffffffffffffff8111156200037c576200037b620000e6565b5b62000388825462000144565b62000395828285620002ba565b600060209050601f831160018114620003cd5760008415620003b8578287015190505b620003c4858262000337565b86555062000434565b601f198416620003dd8662000179565b60005b828110156200040757848901518255600182019150602085019450602081019050620003e0565b8683101562000427578489015162000423601f89168262000317565b8355505b6001600288020188555050505b505050505050565b614111806200044c6000396000f3fe60806040526004361061012a5760003560e01c806372b3b620116100ab578063b88d4fde1161006f578063b88d4fde146103ea578063be9af53614610413578063c18763f71461042f578063c87b56dd1461045a578063e219fc7514610497578063e985e9c5146104b35761012a565b806372b3b6201461031f5780638fafd0211461034f57806395d89b411461037a578063a22cb465146103a5578063ae677aa3146103ce5761012a565b806323b872dd116100f257806323b872dd1461022857806342842e0e1461025157806345f8fa801461027a5780636352211e146102a557806370a08231146102e25761012a565b806301ffc9a71461012f57806306fdde031461016c578063081812fc14610197578063095ea7b3146101d457806312e85585146101fd575b600080fd5b34801561013b57600080fd5b5061015660048036038101906101519190612a67565b6104f0565b6040516101639190612aaf565b60405180910390f35b34801561017857600080fd5b506101816105d2565b60405161018e9190612b5a565b60405180910390f35b3480156101a357600080fd5b506101be60048036038101906101b99190612bb2565b610664565b6040516101cb9190612c20565b60405180910390f35b3480156101e057600080fd5b506101fb60048036038101906101f69190612c67565b6106aa565b005b34801561020957600080fd5b506102126107c1565b60405161021f9190612cb6565b60405180910390f35b34801561023457600080fd5b5061024f600480360381019061024a9190612cd1565b6107cb565b005b34801561025d57600080fd5b5061027860048036038101906102739190612cd1565b61082b565b005b34801561028657600080fd5b5061028f61084b565b60405161029c9190612e7a565b60405180910390f35b3480156102b157600080fd5b506102cc60048036038101906102c79190612bb2565b610b37565b6040516102d99190612c20565b60405180910390f35b3480156102ee57600080fd5b5061030960048036038101906103049190612e9c565b610bbd565b6040516103169190612cb6565b60405180910390f35b61033960048036038101906103349190612ffe565b610c74565b6040516103469190612cb6565b60405180910390f35b34801561035b57600080fd5b50610364610cb6565b6040516103719190612e7a565b60405180910390f35b34801561038657600080fd5b5061038f610f1e565b60405161039c9190612b5a565b60405180910390f35b3480156103b157600080fd5b506103cc60048036038101906103c79190613086565b610fb0565b005b6103e860048036038101906103e39190612bb2565b610fc6565b005b3480156103f657600080fd5b50610411600480360381019061040c9190613167565b610fd0565b005b61042d60048036038101906104289190612bb2565b611032565b005b34801561043b57600080fd5b5061044461126a565b6040516104519190612e7a565b60405180910390f35b34801561046657600080fd5b50610481600480360381019061047c9190612bb2565b611556565b60405161048e9190612b5a565b60405180910390f35b6104b160048036038101906104ac91906131ea565b611668565b005b3480156104bf57600080fd5b506104da60048036038101906104d5919061322a565b61185d565b6040516104e79190612aaf565b60405180910390f35b60007f80ac58cd000000000000000000000000000000000000000000000000000000007bffffffffffffffffffffffffffffffffffffffffffffffffffffffff1916827bffffffffffffffffffffffffffffffffffffffffffffffffffffffff191614806105bb57507f5b5e139f000000000000000000000000000000000000000000000000000000007bffffffffffffffffffffffffffffffffffffffffffffffffffffffff1916827bffffffffffffffffffffffffffffffffffffffffffffffffffffffff1916145b806105cb57506105ca826118f1565b5b9050919050565b6060600080546105e190613299565b80601f016020809104026020016040519081016040528092919081815260200182805461060d90613299565b801561065a5780601f1061062f5761010080835404028352916020019161065a565b820191906000526020600020905b81548152906001019060200180831161063d57829003601f168201915b5050505050905090565b600061066f8261195b565b6004600083815260200190815260200160002060009054906101000a900473ffffffffffffffffffffffffffffffffffffffff169050919050565b60006106b582610b37565b90508073ffffffffffffffffffffffffffffffffffffffff168373ffffffffffffffffffffffffffffffffffffffff1603610725576040517f08c379a000000000000000000000000000000000000000000000000000000000815260040161071c9061333c565b60405180910390fd5b8073ffffffffffffffffffffffffffffffffffffffff166107446119a6565b73ffffffffffffffffffffffffffffffffffffffff16148061077357506107728161076d6119a6565b61185d565b5b6107b2576040517f08c379a00000000000000000000000000000000000000000000000000000000081526004016107a9906133ce565b60405180910390fd5b6107bc83836119ae565b505050565b6000600954905090565b6107dc6107d66119a6565b82611a67565b61081b576040517f08c379a000000000000000000000000000000000000000000000000000000000815260040161081290613460565b60405180910390fd5b610826838383611afc565b505050565b61084683838360405180602001604052806000815250610fd0565b505050565b606060006108596007611df5565b905060008060005b83811015610901573373ffffffffffffffffffffffffffffffffffffffff16600b600060018461089191906134af565b815260200190815260200160002060010160009054906101000a900473ffffffffffffffffffffffffffffffffffffffff1673ffffffffffffffffffffffffffffffffffffffff16036108ee576001836108eb91906134af565b92505b80806108f9906134e3565b915050610861565b5060008267ffffffffffffffff81111561091e5761091d612ed3565b5b60405190808252806020026020018201604052801561095757816020015b61094461299e565b81526020019060019003908161093c5790505b50905060005b84811015610b2c573373ffffffffffffffffffffffffffffffffffffffff16600b600060018461098d91906134af565b815260200190815260200160002060010160009054906101000a900473ffffffffffffffffffffffffffffffffffffffff1673ffffffffffffffffffffffffffffffffffffffff1603610b195760006001826109e991906134af565b90506000600b60008381526020019081526020016000209050806040518060a0016040529081600082015481526020016001820160009054906101000a900473ffffffffffffffffffffffffffffffffffffffff1673ffffffffffffffffffffffffffffffffffffffff1673ffffffffffffffffffffffffffffffffffffffff1681526020016002820160009054906101000a900473ffffffffffffffffffffffffffffffffffffffff1673ffffffffffffffffffffffffffffffffffffffff1673ffffffffffffffffffffffffffffffffffffffff168152602001600382015481526020016004820160009054906101000a900460ff161515151581525050848681518110610afc57610afb61352b565b5b6020026020010181905250600185610b1491906134af565b945050505b8080610b24906134e3565b91505061095d565b508094505050505090565b600080610b4383611e03565b9050600073ffffffffffffffffffffffffffffffffffffffff168173ffffffffffffffffffffffffffffffffffffffff1603610bb4576040517f08c379a0000000000000000000000000000000000000000000000000000000008152600401610bab906135a6565b60405180910390fd5b80915050919050565b60008073ffffffffffffffffffffffffffffffffffffffff168273ffffffffffffffffffffffffffffffffffffffff1603610c2d576040517f08c379a0000000000000000000000000000000000000000000000000000000008152600401610c2490613638565b60405180910390fd5b600360008373ffffffffffffffffffffffffffffffffffffffff1673ffffffffffffffffffffffffffffffffffffffff168152602001908152602001600020549050919050565b6000610c806007611e40565b6000610c8c6007611df5565b9050610c983382611e56565b610ca28185612073565b610cac81846120e0565b8091505092915050565b60606000610cc46007611df5565b90506000610cd26008611df5565b610cdc6007611df5565b610ce69190613658565b90506000808267ffffffffffffffff811115610d0557610d04612ed3565b5b604051908082528060200260200182016040528015610d3e57816020015b610d2b61299e565b815260200190600190039081610d235790505b50905060005b84811015610f13573073ffffffffffffffffffffffffffffffffffffffff16600b6000600184610d7491906134af565b815260200190815260200160002060020160009054906101000a900473ffffffffffffffffffffffffffffffffffffffff1673ffffffffffffffffffffffffffffffffffffffff1603610f00576000600182610dd091906134af565b90506000600b60008381526020019081526020016000209050806040518060a0016040529081600082015481526020016001820160009054906101000a900473ffffffffffffffffffffffffffffffffffffffff1673ffffffffffffffffffffffffffffffffffffffff1673ffffffffffffffffffffffffffffffffffffffff1681526020016002820160009054906101000a900473ffffffffffffffffffffffffffffffffffffffff1673ffffffffffffffffffffffffffffffffffffffff1673ffffffffffffffffffffffffffffffffffffffff168152602001600382015481526020016004820160009054906101000a900460ff161515151581525050848681518110610ee357610ee261352b565b5b6020026020010181905250600185610efb91906134af565b945050505b8080610f0b906134e3565b915050610d44565b508094505050505090565b606060018054610f2d90613299565b80601f0160208091040260200160405190810160405280929190818152602001828054610f5990613299565b8015610fa65780601f10610f7b57610100808354040283529160200191610fa6565b820191906000526020600020905b815481529060010190602001808311610f8957829003601f168201915b5050505050905090565b610fc2610fbb6119a6565b83836122e3565b5050565b8060098190555050565b610fe1610fdb6119a6565b83611a67565b611020576040517f08c379a000000000000000000000000000000000000000000000000000000000815260040161101790613460565b60405180910390fd5b61102c8484848461244f565b50505050565b6000600b600083815260200190815260200160002060030154905080341461108f576040517f08c379a0000000000000000000000000000000000000000000000000000000008152600401611086906136fe565b60405180910390fd5b33600b600084815260200190815260200160002060010160006101000a81548173ffffffffffffffffffffffffffffffffffffffff021916908373ffffffffffffffffffffffffffffffffffffffff1602179055506001600b600084815260200190815260200160002060040160006101000a81548160ff0219169083151502179055506000600b600084815260200190815260200160002060020160006101000a81548173ffffffffffffffffffffffffffffffffffffffff021916908373ffffffffffffffffffffffffffffffffffffffff1602179055506111736008611e40565b61117e303384611afc565b600a60009054906101000a900473ffffffffffffffffffffffffffffffffffffffff1673ffffffffffffffffffffffffffffffffffffffff166108fc6009549081150290604051600060405180830381858888f193505050501580156111e8573d6000803e3d6000fd5b50600b600083815260200190815260200160002060010160009054906101000a900473ffffffffffffffffffffffffffffffffffffffff1673ffffffffffffffffffffffffffffffffffffffff166108fc349081150290604051600060405180830381858888f19350505050158015611265573d6000803e3d6000fd5b505050565b606060006112786007611df5565b905060008060005b83811015611320573373ffffffffffffffffffffffffffffffffffffffff16600b60006001846112b091906134af565b815260200190815260200160002060020160009054906101000a900473ffffffffffffffffffffffffffffffffffffffff1673ffffffffffffffffffffffffffffffffffffffff160361130d5760018361130a91906134af565b92505b8080611318906134e3565b915050611280565b5060008267ffffffffffffffff81111561133d5761133c612ed3565b5b60405190808252806020026020018201604052801561137657816020015b61136361299e565b81526020019060019003908161135b5790505b50905060005b8481101561154b573373ffffffffffffffffffffffffffffffffffffffff16600b60006001846113ac91906134af565b815260200190815260200160002060020160009054906101000a900473ffffffffffffffffffffffffffffffffffffffff1673ffffffffffffffffffffffffffffffffffffffff160361153857600060018261140891906134af565b90506000600b60008381526020019081526020016000209050806040518060a0016040529081600082015481526020016001820160009054906101000a900473ffffffffffffffffffffffffffffffffffffffff1673ffffffffffffffffffffffffffffffffffffffff1673ffffffffffffffffffffffffffffffffffffffff1681526020016002820160009054906101000a900473ffffffffffffffffffffffffffffffffffffffff1673ffffffffffffffffffffffffffffffffffffffff1673ffffffffffffffffffffffffffffffffffffffff168152602001600382015481526020016004820160009054906101000a900460ff16151515158152505084868151811061151b5761151a61352b565b5b602002602001018190525060018561153391906134af565b945050505b8080611543906134e3565b91505061137c565b508094505050505090565b60606115618261195b565b600060066000848152602001908152602001600020805461158190613299565b80601f01602080910402602001604051908101604052809291908181526020018280546115ad90613299565b80156115fa5780601f106115cf576101008083540402835291602001916115fa565b820191906000526020600020905b8154815290600101906020018083116115dd57829003601f168201915b50505050509050600061160b6124ab565b90506000815103611620578192505050611663565b60008251111561165557808260405160200161163d92919061375a565b60405160208183030381529060405292505050611663565b61165e846124c2565b925050505b919050565b3373ffffffffffffffffffffffffffffffffffffffff16600b600084815260200190815260200160002060020160009054906101000a900473ffffffffffffffffffffffffffffffffffffffff1673ffffffffffffffffffffffffffffffffffffffff161461170c576040517f08c379a0000000000000000000000000000000000000000000000000000000008152600401611703906137f0565b60405180910390fd5b6009543414611750576040517f08c379a000000000000000000000000000000000000000000000000000000000815260040161174790613882565b60405180910390fd5b6000600b600084815260200190815260200160002060040160006101000a81548160ff02191690831515021790555080600b60008481526020019081526020016000206003018190555033600b600084815260200190815260200160002060010160006101000a81548173ffffffffffffffffffffffffffffffffffffffff021916908373ffffffffffffffffffffffffffffffffffffffff16021790555030600b600084815260200190815260200160002060020160006101000a81548173ffffffffffffffffffffffffffffffffffffffff021916908373ffffffffffffffffffffffffffffffffffffffff16021790555061184e600861252a565b611859333084611afc565b5050565b6000600560008473ffffffffffffffffffffffffffffffffffffffff1673ffffffffffffffffffffffffffffffffffffffff16815260200190815260200160002060008373ffffffffffffffffffffffffffffffffffffffff1673ffffffffffffffffffffffffffffffffffffffff16815260200190815260200160002060009054906101000a900460ff16905092915050565b60007f01ffc9a7000000000000000000000000000000000000000000000000000000007bffffffffffffffffffffffffffffffffffffffffffffffffffffffff1916827bffffffffffffffffffffffffffffffffffffffffffffffffffffffff1916149050919050565b61196481612586565b6119a3576040517f08c379a000000000000000000000000000000000000000000000000000000000815260040161199a906135a6565b60405180910390fd5b50565b600033905090565b816004600083815260200190815260200160002060006101000a81548173ffffffffffffffffffffffffffffffffffffffff021916908373ffffffffffffffffffffffffffffffffffffffff160217905550808273ffffffffffffffffffffffffffffffffffffffff16611a2183610b37565b73ffffffffffffffffffffffffffffffffffffffff167f8c5be1e5ebec7d5bd14f71427d1e84f3dd0314c0f7b2291e5b200ac8c7c3b92560405160405180910390a45050565b600080611a7383610b37565b90508073ffffffffffffffffffffffffffffffffffffffff168473ffffffffffffffffffffffffffffffffffffffff161480611ab55750611ab4818561185d565b5b80611af357508373ffffffffffffffffffffffffffffffffffffffff16611adb84610664565b73ffffffffffffffffffffffffffffffffffffffff16145b91505092915050565b8273ffffffffffffffffffffffffffffffffffffffff16611b1c82610b37565b73ffffffffffffffffffffffffffffffffffffffff1614611b72576040517f08c379a0000000000000000000000000000000000000000000000000000000008152600401611b6990613914565b60405180910390fd5b600073ffffffffffffffffffffffffffffffffffffffff168273ffffffffffffffffffffffffffffffffffffffff1603611be1576040517f08c379a0000000000000000000000000000000000000000000000000000000008152600401611bd8906139a6565b60405180910390fd5b611bee83838360016125c7565b8273ffffffffffffffffffffffffffffffffffffffff16611c0e82610b37565b73ffffffffffffffffffffffffffffffffffffffff1614611c64576040517f08c379a0000000000000000000000000000000000000000000000000000000008152600401611c5b90613914565b60405180910390fd5b6004600082815260200190815260200160002060006101000a81549073ffffffffffffffffffffffffffffffffffffffff02191690556001600360008573ffffffffffffffffffffffffffffffffffffffff1673ffffffffffffffffffffffffffffffffffffffff168152602001908152602001600020600082825403925050819055506001600360008473ffffffffffffffffffffffffffffffffffffffff1673ffffffffffffffffffffffffffffffffffffffff16815260200190815260200160002060008282540192505081905550816002600083815260200190815260200160002060006101000a81548173ffffffffffffffffffffffffffffffffffffffff021916908373ffffffffffffffffffffffffffffffffffffffff160217905550808273ffffffffffffffffffffffffffffffffffffffff168473ffffffffffffffffffffffffffffffffffffffff167fddf252ad1be2c89b69c2b068fc378daa952ba7f163c4a11628f55a4df523b3ef60405160405180910390a4611df083838360016125cd565b505050565b600081600001549050919050565b60006002600083815260200190815260200160002060009054906101000a900473ffffffffffffffffffffffffffffffffffffffff169050919050565b6001816000016000828254019250508190555050565b600073ffffffffffffffffffffffffffffffffffffffff168273ffffffffffffffffffffffffffffffffffffffff1603611ec5576040517f08c379a0000000000000000000000000000000000000000000000000000000008152600401611ebc90613a12565b60405180910390fd5b611ece81612586565b15611f0e576040517f08c379a0000000000000000000000000000000000000000000000000000000008152600401611f0590613a7e565b60405180910390fd5b611f1c6000838360016125c7565b611f2581612586565b15611f65576040517f08c379a0000000000000000000000000000000000000000000000000000000008152600401611f5c90613a7e565b60405180910390fd5b6001600360008473ffffffffffffffffffffffffffffffffffffffff1673ffffffffffffffffffffffffffffffffffffffff16815260200190815260200160002060008282540192505081905550816002600083815260200190815260200160002060006101000a81548173ffffffffffffffffffffffffffffffffffffffff021916908373ffffffffffffffffffffffffffffffffffffffff160217905550808273ffffffffffffffffffffffffffffffffffffffff16600073ffffffffffffffffffffffffffffffffffffffff167fddf252ad1be2c89b69c2b068fc378daa952ba7f163c4a11628f55a4df523b3ef60405160405180910390a461206f6000838360016125cd565b5050565b61207c82612586565b6120bb576040517f08c379a00000000000000000000000000000000000000000000000000000000081526004016120b290613b10565b60405180910390fd5b806006600084815260200190815260200160002090816120db9190613cdc565b505050565b60008111612123576040517f08c379a000000000000000000000000000000000000000000000000000000000815260040161211a90613dfa565b60405180910390fd5b6009543414612167576040517f08c379a000000000000000000000000000000000000000000000000000000000815260040161215e90613882565b60405180910390fd5b6040518060a001604052808381526020013373ffffffffffffffffffffffffffffffffffffffff1681526020013073ffffffffffffffffffffffffffffffffffffffff16815260200182815260200160001515815250600b60008481526020019081526020016000206000820151816000015560208201518160010160006101000a81548173ffffffffffffffffffffffffffffffffffffffff021916908373ffffffffffffffffffffffffffffffffffffffff16021790555060408201518160020160006101000a81548173ffffffffffffffffffffffffffffffffffffffff021916908373ffffffffffffffffffffffffffffffffffffffff1602179055506060820151816003015560808201518160040160006101000a81548160ff0219169083151502179055509050506122a0333084611afc565b817f12660f536c114198092e438c69e73fd9e7dfe052a62864fae7ddc8b405d1b74e33308460006040516122d79493929190613e1a565b60405180910390a25050565b8173ffffffffffffffffffffffffffffffffffffffff168373ffffffffffffffffffffffffffffffffffffffff1603612351576040517f08c379a000000000000000000000000000000000000000000000000000000000815260040161234890613eab565b60405180910390fd5b80600560008573ffffffffffffffffffffffffffffffffffffffff1673ffffffffffffffffffffffffffffffffffffffff16815260200190815260200160002060008473ffffffffffffffffffffffffffffffffffffffff1673ffffffffffffffffffffffffffffffffffffffff16815260200190815260200160002060006101000a81548160ff0219169083151502179055508173ffffffffffffffffffffffffffffffffffffffff168373ffffffffffffffffffffffffffffffffffffffff167f17307eab39ab6107e8899845ad3d59bd9653f200f220920489ca2b5937696c31836040516124429190612aaf565b60405180910390a3505050565b61245a848484611afc565b612466848484846125d3565b6124a5576040517f08c379a000000000000000000000000000000000000000000000000000000000815260040161249c90613f3d565b60405180910390fd5b50505050565b606060405180602001604052806000815250905090565b60606124cd8261195b565b60006124d76124ab565b905060008151116124f75760405180602001604052806000815250612522565b806125018461275a565b60405160200161251292919061375a565b6040516020818303038152906040525b915050919050565b60008160000154905060008111612576576040517f08c379a000000000000000000000000000000000000000000000000000000000815260040161256d90613fa9565b60405180910390fd5b6001810382600001819055505050565b60008073ffffffffffffffffffffffffffffffffffffffff166125a883611e03565b73ffffffffffffffffffffffffffffffffffffffff1614159050919050565b50505050565b50505050565b60006125f48473ffffffffffffffffffffffffffffffffffffffff16612828565b1561274d578373ffffffffffffffffffffffffffffffffffffffff1663150b7a0261261d6119a6565b8786866040518563ffffffff1660e01b815260040161263f949392919061401e565b6020604051808303816000875af192505050801561267b57506040513d601f19601f82011682018060405250810190612678919061407f565b60015b6126fd573d80600081146126ab576040519150601f19603f3d011682016040523d82523d6000602084013e6126b0565b606091505b5060008151036126f5576040517f08c379a00000000000000000000000000000000000000000000000000000000081526004016126ec90613f3d565b60405180910390fd5b805181602001fd5b63150b7a0260e01b7bffffffffffffffffffffffffffffffffffffffffffffffffffffffff1916817bffffffffffffffffffffffffffffffffffffffffffffffffffffffff191614915050612752565b600190505b949350505050565b6060600060016127698461284b565b01905060008167ffffffffffffffff81111561278857612787612ed3565b5b6040519080825280601f01601f1916602001820160405280156127ba5781602001600182028036833780820191505090505b509050600082602001820190505b60011561281d578080600190039150507f3031323334353637383961626364656600000000000000000000000000000000600a86061a8153600a8581612811576128106140ac565b5b049450600085036127c8575b819350505050919050565b6000808273ffffffffffffffffffffffffffffffffffffffff163b119050919050565b600080600090507a184f03e93ff9f4daa797ed6e38ed64bf6a1f01000000000000000083106128a9577a184f03e93ff9f4daa797ed6e38ed64bf6a1f010000000000000000838161289f5761289e6140ac565b5b0492506040810190505b6d04ee2d6d415b85acef810000000083106128e6576d04ee2d6d415b85acef810000000083816128dc576128db6140ac565b5b0492506020810190505b662386f26fc10000831061291557662386f26fc10000838161290b5761290a6140ac565b5b0492506010810190505b6305f5e100831061293e576305f5e1008381612934576129336140ac565b5b0492506008810190505b6127108310612963576127108381612959576129586140ac565b5b0492506004810190505b60648310612986576064838161297c5761297b6140ac565b5b0492506002810190505b600a8310612995576001810190505b80915050919050565b6040518060a0016040528060008152602001600073ffffffffffffffffffffffffffffffffffffffff168152602001600073ffffffffffffffffffffffffffffffffffffffff168152602001600081526020016000151581525090565b6000604051905090565b600080fd5b600080fd5b60007fffffffff0000000000000000000000000000000000000000000000000000000082169050919050565b612a4481612a0f565b8114612a4f57600080fd5b50565b600081359050612a6181612a3b565b92915050565b600060208284031215612a7d57612a7c612a05565b5b6000612a8b84828501612a52565b91505092915050565b60008115159050919050565b612aa981612a94565b82525050565b6000602082019050612ac46000830184612aa0565b92915050565b600081519050919050565b600082825260208201905092915050565b60005b83811015612b04578082015181840152602081019050612ae9565b60008484015250505050565b6000601f19601f8301169050919050565b6000612b2c82612aca565b612b368185612ad5565b9350612b46818560208601612ae6565b612b4f81612b10565b840191505092915050565b60006020820190508181036000830152612b748184612b21565b905092915050565b6000819050919050565b612b8f81612b7c565b8114612b9a57600080fd5b50565b600081359050612bac81612b86565b92915050565b600060208284031215612bc857612bc7612a05565b5b6000612bd684828501612b9d565b91505092915050565b600073ffffffffffffffffffffffffffffffffffffffff82169050919050565b6000612c0a82612bdf565b9050919050565b612c1a81612bff565b82525050565b6000602082019050612c356000830184612c11565b92915050565b612c4481612bff565b8114612c4f57600080fd5b50565b600081359050612c6181612c3b565b92915050565b60008060408385031215612c7e57612c7d612a05565b5b6000612c8c85828601612c52565b9250506020612c9d85828601612b9d565b9150509250929050565b612cb081612b7c565b82525050565b6000602082019050612ccb6000830184612ca7565b92915050565b600080600060608486031215612cea57612ce9612a05565b5b6000612cf886828701612c52565b9350506020612d0986828701612c52565b9250506040612d1a86828701612b9d565b9150509250925092565b600081519050919050565b600082825260208201905092915050565b6000819050602082019050919050565b612d5981612b7c565b82525050565b6000612d6a82612bdf565b9050919050565b612d7a81612d5f565b82525050565b612d8981612a94565b82525050565b60a082016000820151612da56000850182612d50565b506020820151612db86020850182612d71565b506040820151612dcb6040850182612d71565b506060820151612dde6060850182612d50565b506080820151612df16080850182612d80565b50505050565b6000612e038383612d8f565b60a08301905092915050565b6000602082019050919050565b6000612e2782612d24565b612e318185612d2f565b9350612e3c83612d40565b8060005b83811015612e6d578151612e548882612df7565b9750612e5f83612e0f565b925050600181019050612e40565b5085935050505092915050565b60006020820190508181036000830152612e948184612e1c565b905092915050565b600060208284031215612eb257612eb1612a05565b5b6000612ec084828501612c52565b91505092915050565b600080fd5b600080fd5b7f4e487b7100000000000000000000000000000000000000000000000000000000600052604160045260246000fd5b612f0b82612b10565b810181811067ffffffffffffffff82111715612f2a57612f29612ed3565b5b80604052505050565b6000612f3d6129fb565b9050612f498282612f02565b919050565b600067ffffffffffffffff821115612f6957612f68612ed3565b5b612f7282612b10565b9050602081019050919050565b82818337600083830152505050565b6000612fa1612f9c84612f4e565b612f33565b905082815260208101848484011115612fbd57612fbc612ece565b5b612fc8848285612f7f565b509392505050565b600082601f830112612fe557612fe4612ec9565b5b8135612ff5848260208601612f8e565b91505092915050565b6000806040838503121561301557613014612a05565b5b600083013567ffffffffffffffff81111561303357613032612a0a565b5b61303f85828601612fd0565b925050602061305085828601612b9d565b9150509250929050565b61306381612a94565b811461306e57600080fd5b50565b6000813590506130808161305a565b92915050565b6000806040838503121561309d5761309c612a05565b5b60006130ab85828601612c52565b92505060206130bc85828601613071565b9150509250929050565b600067ffffffffffffffff8211156130e1576130e0612ed3565b5b6130ea82612b10565b9050602081019050919050565b600061310a613105846130c6565b612f33565b90508281526020810184848401111561312657613125612ece565b5b613131848285612f7f565b509392505050565b600082601f83011261314e5761314d612ec9565b5b813561315e8482602086016130f7565b91505092915050565b6000806000806080858703121561318157613180612a05565b5b600061318f87828801612c52565b94505060206131a087828801612c52565b93505060406131b187828801612b9d565b925050606085013567ffffffffffffffff8111156131d2576131d1612a0a565b5b6131de87828801613139565b91505092959194509250565b6000806040838503121561320157613200612a05565b5b600061320f85828601612b9d565b925050602061322085828601612b9d565b9150509250929050565b6000806040838503121561324157613240612a05565b5b600061324f85828601612c52565b925050602061326085828601612c52565b9150509250929050565b7f4e487b7100000000000000000000000000000000000000000000000000000000600052602260045260246000fd5b600060028204905060018216806132b157607f821691505b6020821081036132c4576132c361326a565b5b50919050565b7f4552433732313a20617070726f76616c20746f2063757272656e74206f776e6560008201527f7200000000000000000000000000000000000000000000000000000000000000602082015250565b6000613326602183612ad5565b9150613331826132ca565b604082019050919050565b6000602082019050818103600083015261335581613319565b9050919050565b7f4552433732313a20617070726f76652063616c6c6572206973206e6f7420746f60008201527f6b656e206f776e6572206f7220617070726f76656420666f7220616c6c000000602082015250565b60006133b8603d83612ad5565b91506133c38261335c565b604082019050919050565b600060208201905081810360008301526133e7816133ab565b9050919050565b7f4552433732313a2063616c6c6572206973206e6f7420746f6b656e206f776e6560008201527f72206f7220617070726f76656400000000000000000000000000000000000000602082015250565b600061344a602d83612ad5565b9150613455826133ee565b604082019050919050565b600060208201905081810360008301526134798161343d565b9050919050565b7f4e487b7100000000000000000000000000000000000000000000000000000000600052601160045260246000fd5b60006134ba82612b7c565b91506134c583612b7c565b92508282019050808211156134dd576134dc613480565b5b92915050565b60006134ee82612b7c565b91507fffffffffffffffffffffffffffffffffffffffffffffffffffffffffffffffff82036135205761351f613480565b5b600182019050919050565b7f4e487b7100000000000000000000000000000000000000000000000000000000600052603260045260246000fd5b7f4552433732313a20696e76616c696420746f6b656e2049440000000000000000600082015250565b6000613590601883612ad5565b915061359b8261355a565b602082019050919050565b600060208201905081810360008301526135bf81613583565b9050919050565b7f4552433732313a2061646472657373207a65726f206973206e6f74206120766160008201527f6c6964206f776e65720000000000000000000000000000000000000000000000602082015250565b6000613622602983612ad5565b915061362d826135c6565b604082019050919050565b6000602082019050818103600083015261365181613615565b9050919050565b600061366382612b7c565b915061366e83612b7c565b925082820390508181111561368657613685613480565b5b92915050565b7f506c65617365207375626d697474207468652061736b696e672070726963652060008201527f696e206f7264657220746f20636f6d706c657465207468697320616374696f6e602082015250565b60006136e8604083612ad5565b91506136f38261368c565b604082019050919050565b60006020820190508181036000830152613717816136db565b9050919050565b600081905092915050565b600061373482612aca565b61373e818561371e565b935061374e818560208601612ae6565b80840191505092915050565b60006137668285613729565b91506137728284613729565b91508190509392505050565b7f4f6e6c79206974656d206f776e65722063616e20706572666f726d207468697360008201527f206f7065726174696f6e00000000000000000000000000000000000000000000602082015250565b60006137da602a83612ad5565b91506137e58261377e565b604082019050919050565b60006020820190508181036000830152613809816137cd565b9050919050565b7f5072696365206d75737420626520657175616c20746f206c697374696e67207060008201527f7269636500000000000000000000000000000000000000000000000000000000602082015250565b600061386c602483612ad5565b915061387782613810565b604082019050919050565b6000602082019050818103600083015261389b8161385f565b9050919050565b7f4552433732313a207472616e736665722066726f6d20696e636f72726563742060008201527f6f776e6572000000000000000000000000000000000000000000000000000000602082015250565b60006138fe602583612ad5565b9150613909826138a2565b604082019050919050565b6000602082019050818103600083015261392d816138f1565b9050919050565b7f4552433732313a207472616e7366657220746f20746865207a65726f2061646460008201527f7265737300000000000000000000000000000000000000000000000000000000602082015250565b6000613990602483612ad5565b915061399b82613934565b604082019050919050565b600060208201905081810360008301526139bf81613983565b9050919050565b7f4552433732313a206d696e7420746f20746865207a65726f2061646472657373600082015250565b60006139fc602083612ad5565b9150613a07826139c6565b602082019050919050565b60006020820190508181036000830152613a2b816139ef565b9050919050565b7f4552433732313a20746f6b656e20616c7265616479206d696e74656400000000600082015250565b6000613a68601c83612ad5565b9150613a7382613a32565b602082019050919050565b60006020820190508181036000830152613a9781613a5b565b9050919050565b7f45524337323155524953746f726167653a2055524920736574206f66206e6f6e60008201527f6578697374656e7420746f6b656e000000000000000000000000000000000000602082015250565b6000613afa602e83612ad5565b9150613b0582613a9e565b604082019050919050565b60006020820190508181036000830152613b2981613aed565b9050919050565b60008190508160005260206000209050919050565b60006020601f8301049050919050565b600082821b905092915050565b600060088302613b927fffffffffffffffffffffffffffffffffffffffffffffffffffffffffffffffff82613b55565b613b9c8683613b55565b95508019841693508086168417925050509392505050565b6000819050919050565b6000613bd9613bd4613bcf84612b7c565b613bb4565b612b7c565b9050919050565b6000819050919050565b613bf383613bbe565b613c07613bff82613be0565b848454613b62565b825550505050565b600090565b613c1c613c0f565b613c27818484613bea565b505050565b5b81811015613c4b57613c40600082613c14565b600181019050613c2d565b5050565b601f821115613c9057613c6181613b30565b613c6a84613b45565b81016020851015613c79578190505b613c8d613c8585613b45565b830182613c2c565b50505b505050565b600082821c905092915050565b6000613cb360001984600802613c95565b1980831691505092915050565b6000613ccc8383613ca2565b9150826002028217905092915050565b613ce582612aca565b67ffffffffffffffff811115613cfe57613cfd612ed3565b5b613d088254613299565b613d13828285613c4f565b600060209050601f831160018114613d465760008415613d34578287015190505b613d3e8582613cc0565b865550613da6565b601f198416613d5486613b30565b60005b82811015613d7c57848901518255600182019150602085019450602081019050613d57565b86831015613d995784890151613d95601f891682613ca2565b8355505b6001600288020188555050505b505050505050565b7f5072696365206d757374206265206174206c6561737420310000000000000000600082015250565b6000613de4601883612ad5565b9150613def82613dae565b602082019050919050565b60006020820190508181036000830152613e1381613dd7565b9050919050565b6000608082019050613e2f6000830187612c11565b613e3c6020830186612c11565b613e496040830185612ca7565b613e566060830184612aa0565b95945050505050565b7f4552433732313a20617070726f766520746f2063616c6c657200000000000000600082015250565b6000613e95601983612ad5565b9150613ea082613e5f565b602082019050919050565b60006020820190508181036000830152613ec481613e88565b9050919050565b7f4552433732313a207472616e7366657220746f206e6f6e20455243373231526560008201527f63656976657220696d706c656d656e7465720000000000000000000000000000602082015250565b6000613f27603283612ad5565b9150613f3282613ecb565b604082019050919050565b60006020820190508181036000830152613f5681613f1a565b9050919050565b7f436f756e7465723a2064656372656d656e74206f766572666c6f770000000000600082015250565b6000613f93601b83612ad5565b9150613f9e82613f5d565b602082019050919050565b60006020820190508181036000830152613fc281613f86565b9050919050565b600081519050919050565b600082825260208201905092915050565b6000613ff082613fc9565b613ffa8185613fd4565b935061400a818560208601612ae6565b61401381612b10565b840191505092915050565b60006080820190506140336000830187612c11565b6140406020830186612c11565b61404d6040830185612ca7565b818103606083015261405f8184613fe5565b905095945050505050565b60008151905061407981612a3b565b92915050565b60006020828403121561409557614094612a05565b5b60006140a38482850161406a565b91505092915050565b7f4e487b7100000000000000000000000000000000000000000000000000000000600052601260045260246000fdfea2646970667358221220411dbf9b0b0145e4a01047afca29d49c581a0b06d00b088acb8ca2829ec31c9b64736f6c63430008120033",
  "linkReferences": {},
  "deployedLinkReferences": {}
}