{
  "_format": "hh-sol-artifact-1",
  "contractName": "NFTMarketplace",
  "sourceName": "contracts/NFT_marketplace.sol",
  "abi": [
    {
      "inputs": [],
      "stateMutability": "nonpayable",
      "type": "constructor"
    },
    {
      "anonymous": false,
      "inputs": [
        {
          "indexed": true,
          "internalType": "address",
          "name": "owner",
          "type": "address"
        },
        {
          "indexed": true,
          "internalType": "address",
          "name": "approved",
          "type": "address"
        },
        {
          "indexed": true,
          "internalType": "uint256",
          "name": "tokenId",
          "type": "uint256"
        }
      ],
      "name": "Approval",
      "type": "event"
    },
    {
      "anonymous": false,
      "inputs": [
        {
          "indexed": true,
          "internalType": "address",
          "name": "owner",
          "type": "address"
        },
        {
          "indexed": true,
          "internalType": "address",
          "name": "operator",
          "type": "address"
        },
        {
          "indexed": false,
          "internalType": "bool",
          "name": "approved",
          "type": "bool"
        }
      ],
      "name": "ApprovalForAll",
      "type": "event"
    },
    {
      "anonymous": false,
      "inputs": [
        {
          "indexed": true,
          "internalType": "uint256",
          "name": "tokenID",
          "type": "uint256"
        },
        {
          "indexed": false,
          "internalType": "address",
          "name": "seller",
          "type": "address"
        },
        {
          "indexed": false,
          "internalType": "address",
          "name": "owner",
          "type": "address"
        },
        {
          "indexed": false,
          "internalType": "uint256",
          "name": "price",
          "type": "uint256"
        },
        {
          "indexed": false,
          "internalType": "bool",
          "name": "sold",
          "type": "bool"
        }
      ],
      "name": "IDMarketItemCreated",
      "type": "event"
    },
    {
      "anonymous": false,
      "inputs": [
        {
          "indexed": true,
          "internalType": "address",
          "name": "from",
          "type": "address"
        },
        {
          "indexed": true,
          "internalType": "address",
          "name": "to",
          "type": "address"
        },
        {
          "indexed": true,
          "internalType": "uint256",
          "name": "tokenId",
          "type": "uint256"
        }
      ],
      "name": "Transfer",
      "type": "event"
    },
    {
      "inputs": [
        {
          "internalType": "address",
          "name": "to",
          "type": "address"
        },
        {
          "internalType": "uint256",
          "name": "tokenId",
          "type": "uint256"
        }
      ],
      "name": "approve",
      "outputs": [],
      "stateMutability": "nonpayable",
      "type": "function"
    },
    {
      "inputs": [
        {
          "internalType": "address",
          "name": "owner",
          "type": "address"
        }
      ],
      "name": "balanceOf",
      "outputs": [
        {
          "internalType": "uint256",
          "name": "",
          "type": "uint256"
        }
      ],
      "stateMutability": "view",
      "type": "function"
    },
    {
      "inputs": [
        {
          "internalType": "uint256",
          "name": "tokenID",
          "type": "uint256"
        }
      ],
      "name": "createMarketSale",
      "outputs": [],
      "stateMutability": "payable",
      "type": "function"
    },
    {
      "inputs": [
        {
          "internalType": "string",
          "name": "tokenURI",
          "type": "string"
        },
        {
          "internalType": "uint256",
          "name": "price",
          "type": "uint256"
        }
      ],
      "name": "createToken",
      "outputs": [
        {
          "internalType": "uint256",
          "name": "",
          "type": "uint256"
        }
      ],
      "stateMutability": "payable",
      "type": "function"
    },
    {
      "inputs": [],
      "name": "fetchItemsListed",
      "outputs": [
        {
          "components": [
            {
              "internalType": "uint256",
              "name": "tokenID",
              "type": "uint256"
            },
            {
              "internalType": "address payable",
              "name": "seller",
              "type": "address"
            },
            {
              "internalType": "address payable",
              "name": "owner",
              "type": "address"
            },
            {
              "internalType": "uint256",
              "name": "price",
              "type": "uint256"
            },
            {
              "internalType": "bool",
              "name": "sold",
              "type": "bool"
            }
          ],
          "internalType": "struct NFTMarketplace.MarketItem[]",
          "name": "",
          "type": "tuple[]"
        }
      ],
      "stateMutability": "view",
      "type": "function"
    },
    {
      "inputs": [],
      "name": "fetchMarketItem",
      "outputs": [
        {
          "components": [
            {
              "internalType": "uint256",
              "name": "tokenID",
              "type": "uint256"
            },
            {
              "internalType": "address payable",
              "name": "seller",
              "type": "address"
            },
            {
              "internalType": "address payable",
              "name": "owner",
              "type": "address"
            },
            {
              "internalType": "uint256",
              "name": "price",
              "type": "uint256"
            },
            {
              "internalType": "bool",
              "name": "sold",
              "type": "bool"
            }
          ],
          "internalType": "struct NFTMarketplace.MarketItem[]",
          "name": "",
          "type": "tuple[]"
        }
      ],
      "stateMutability": "view",
      "type": "function"
    },
    {
      "inputs": [],
      "name": "fetchMyNFT",
      "outputs": [
        {
          "components": [
            {
              "internalType": "uint256",
              "name": "tokenID",
              "type": "uint256"
            },
            {
              "internalType": "address payable",
              "name": "seller",
              "type": "address"
            },
            {
              "internalType": "address payable",
              "name": "owner",
              "type": "address"
            },
            {
              "internalType": "uint256",
              "name": "price",
              "type": "uint256"
            },
            {
              "internalType": "bool",
              "name": "sold",
              "type": "bool"
            }
          ],
          "internalType": "struct NFTMarketplace.MarketItem[]",
          "name": "",
          "type": "tuple[]"
        }
      ],
      "stateMutability": "view",
      "type": "function"
    },
    {
      "inputs": [
        {
          "internalType": "uint256",
          "name": "tokenId",
          "type": "uint256"
        }
      ],
      "name": "getApproved",
      "outputs": [
        {
          "internalType": "address",
          "name": "",
          "type": "address"
        }
      ],
      "stateMutability": "view",
      "type": "function"
    },
    {
      "inputs": [],
      "name": "getListingPrice",
      "outputs": [
        {
          "internalType": "uint256",
          "name": "",
          "type": "uint256"
        }
      ],
      "stateMutability": "view",
      "type": "function"
    },
    {
      "inputs": [
        {
          "internalType": "address",
          "name": "owner",
          "type": "address"
        },
        {
          "internalType": "address",
          "name": "operator",
          "type": "address"
        }
      ],
      "name": "isApprovedForAll",
      "outputs": [
        {
          "internalType": "bool",
          "name": "",
          "type": "bool"
        }
      ],
      "stateMutability": "view",
      "type": "function"
    },
    {
      "inputs": [],
      "name": "name",
      "outputs": [
        {
          "internalType": "string",
          "name": "",
          "type": "string"
        }
      ],
      "stateMutability": "view",
      "type": "function"
    },
    {
      "inputs": [
        {
          "internalType": "uint256",
          "name": "tokenId",
          "type": "uint256"
        }
      ],
      "name": "ownerOf",
      "outputs": [
        {
          "internalType": "address",
          "name": "",
          "type": "address"
        }
      ],
      "stateMutability": "view",
      "type": "function"
    },
    {
      "inputs": [
        {
          "internalType": "uint256",
          "name": "tokenID",
          "type": "uint256"
        },
        {
          "internalType": "uint256",
          "name": "price",
          "type": "uint256"
        }
      ],
      "name": "resellToken",
      "outputs": [],
      "stateMutability": "payable",
      "type": "function"
    },
    {
      "inputs": [
        {
          "internalType": "address",
          "name": "from",
          "type": "address"
        },
        {
          "internalType": "address",
          "name": "to",
          "type": "address"
        },
        {
          "internalType": "uint256",
          "name": "tokenId",
          "type": "uint256"
        }
      ],
      "name": "safeTransferFrom",
      "outputs": [],
      "stateMutability": "nonpayable",
      "type": "function"
    },
    {
      "inputs": [
        {
          "internalType": "address",
          "name": "from",
          "type": "address"
        },
        {
          "internalType": "address",
          "name": "to",
          "type": "address"
        },
        {
          "internalType": "uint256",
          "name": "tokenId",
          "type": "uint256"
        },
        {
          "internalType": "bytes",
          "name": "data",
          "type": "bytes"
        }
      ],
      "name": "safeTransferFrom",
      "outputs": [],
      "stateMutability": "nonpayable",
      "type": "function"
    },
    {
      "inputs": [
        {
          "internalType": "address",
          "name": "operator",
          "type": "address"
        },
        {
          "internalType": "bool",
          "name": "approved",
          "type": "bool"
        }
      ],
      "name": "setApprovalForAll",
      "outputs": [],
      "stateMutability": "nonpayable",
      "type": "function"
    },
    {
      "inputs": [
        {
          "internalType": "bytes4",
          "name": "interfaceId",
          "type": "bytes4"
        }
      ],
      "name": "supportsInterface",
      "outputs": [
        {
          "internalType": "bool",
          "name": "",
          "type": "bool"
        }
      ],
      "stateMutability": "view",
      "type": "function"
    },
    {
      "inputs": [],
      "name": "symbol",
      "outputs": [
        {
          "internalType": "string",
          "name": "",
          "type": "string"
        }
      ],
      "stateMutability": "view",
      "type": "function"
    },
    {
      "inputs": [
        {
          "internalType": "uint256",
          "name": "tokenId",
          "type": "uint256"
        }
      ],
      "name": "tokenURI",
      "outputs": [
        {
          "internalType": "string",
          "name": "",
          "type": "string"
        }
      ],
      "stateMutability": "view",
      "type": "function"
    },
    {
      "inputs": [
        {
          "internalType": "address",
          "name": "from",
          "type": "address"
        },
        {
          "internalType": "address",
          "name": "to",
          "type": "address"
        },
        {
          "internalType": "uint256",
          "name": "tokenId",
          "type": "uint256"
        }
      ],
      "name": "transferFrom",
      "outputs": [],
      "stateMutability": "nonpayable",
      "type": "function"
    },
    {
      "inputs": [
        {
          "internalType": "uint256",
          "name": "_listingPrice",
          "type": "uint256"
        }
      ],
      "name": "updateListingPrice",
      "outputs": [],
      "stateMutability": "payable",
      "type": "function"
    }
  ],
  "bytecode": "0x6080604052660aa87bee5380006009553480156200001c57600080fd5b506040518060400160405280600981526020017f4e465420546f6b656e00000000000000000000000000000000000000000000008152506040518060400160405280600581526020017f4d794e465400000000000000000000000000000000000000000000000000000081525081600090816200009a919062000355565b508060019081620000ac919062000355565b5050503373ffffffffffffffffffffffffffffffffffffffff16600a60009054906101000a905050506200043c565b600081519050919050565b7f4e487b7100000000000000000000000000000000000000000000000000000000600052604160045260246000fd5b7f4e487b7100000000000000000000000000000000000000000000000000000000600052602260045260246000fd5b600060028204905060018216806200015d57607f821691505b60208210810362000173576200017262000115565b5b50919050565b60008190508160005260206000209050919050565b60006020601f8301049050919050565b600082821b905092915050565b600060088302620001dd7fffffffffffffffffffffffffffffffffffffffffffffffffffffffffffffffff826200019e565b620001e986836200019e565b95508019841693508086168417925050509392505050565b6000819050919050565b6000819050919050565b600062000236620002306200022a8462000201565b6200020b565b62000201565b9050919050565b6000819050919050565b620002528362000215565b6200026a62000261826200023d565b848454620001ab565b825550505050565b600090565b6200028162000272565b6200028e81848462000247565b505050565b5b81811015620002b657620002aa60008262000277565b60018101905062000294565b5050565b601f8211156200030557620002cf8162000179565b620002da846200018e565b81016020851015620002ea578190505b62000302620002f9856200018e565b83018262000293565b50505b505050565b600082821c905092915050565b60006200032a600019846008026200030a565b1980831691505092915050565b600062000345838362000317565b9150826002028217905092915050565b6200036082620000db565b67ffffffffffffffff8111156200037c576200037b620000e6565b5b62000388825462000144565b62000395828285620002ba565b600060209050601f831160018114620003cd5760008415620003b8578287015190505b620003c4858262000337565b86555062000434565b601f198416620003dd8662000179565b60005b828110156200040757848901518255600182019150602085019450602081019050620003e0565b8683101562000427578489015162000423601f89168262000317565b8355505b6001600288020188555050505b505050505050565b613d8a806200044c6000396000f3fe60806040526004361061012a5760003560e01c806372b3b620116100ab578063b88d4fde1161006f578063b88d4fde146103ea578063be9af53614610413578063c18763f71461042f578063c87b56dd1461045a578063e219fc7514610497578063e985e9c5146104b35761012a565b806372b3b6201461031f5780638fafd0211461034f57806395d89b411461037a578063a22cb465146103a5578063ae677aa3146103ce5761012a565b806323b872dd116100f257806323b872dd1461022857806342842e0e1461025157806345f8fa801461027a5780636352211e146102a557806370a08231146102e25761012a565b806301ffc9a71461012f57806306fdde031461016c578063081812fc14610197578063095ea7b3146101d457806312e85585146101fd575b600080fd5b34801561013b57600080fd5b50610156600480360381019061015191906129f0565b6104f0565b6040516101639190612a38565b60405180910390f35b34801561017857600080fd5b506101816105d2565b60405161018e9190612ae3565b60405180910390f35b3480156101a357600080fd5b506101be60048036038101906101b99190612b3b565b610664565b6040516101cb9190612ba9565b60405180910390f35b3480156101e057600080fd5b506101fb60048036038101906101f69190612bf0565b6106aa565b005b34801561020957600080fd5b506102126107c1565b60405161021f9190612c3f565b60405180910390f35b34801561023457600080fd5b5061024f600480360381019061024a9190612c5a565b6107cb565b005b34801561025d57600080fd5b5061027860048036038101906102739190612c5a565b61082b565b005b34801561028657600080fd5b5061028f61084b565b60405161029c9190612e03565b60405180910390f35b3480156102b157600080fd5b506102cc60048036038101906102c79190612b3b565b610b37565b6040516102d99190612ba9565b60405180910390f35b3480156102ee57600080fd5b5061030960048036038101906103049190612e25565b610bbd565b6040516103169190612c3f565b60405180910390f35b61033960048036038101906103349190612f87565b610c74565b6040516103469190612c3f565b60405180910390f35b34801561035b57600080fd5b50610364610cac565b6040516103719190612e03565b60405180910390f35b34801561038657600080fd5b5061038f610f14565b60405161039c9190612ae3565b60405180910390f35b3480156103b157600080fd5b506103cc60048036038101906103c7919061300f565b610fa6565b005b6103e860048036038101906103e39190612b3b565b610fbc565b005b3480156103f657600080fd5b50610411600480360381019061040c91906130f0565b610fc6565b005b61042d60048036038101906104289190612b3b565b611028565b005b34801561043b57600080fd5b50610444611260565b6040516104519190612e03565b60405180910390f35b34801561046657600080fd5b50610481600480360381019061047c9190612b3b565b61154c565b60405161048e9190612ae3565b60405180910390f35b6104b160048036038101906104ac9190613173565b61165e565b005b3480156104bf57600080fd5b506104da60048036038101906104d591906131b3565b611853565b6040516104e79190612a38565b60405180910390f35b60007f80ac58cd000000000000000000000000000000000000000000000000000000007bffffffffffffffffffffffffffffffffffffffffffffffffffffffff1916827bffffffffffffffffffffffffffffffffffffffffffffffffffffffff191614806105bb57507f5b5e139f000000000000000000000000000000000000000000000000000000007bffffffffffffffffffffffffffffffffffffffffffffffffffffffff1916827bffffffffffffffffffffffffffffffffffffffffffffffffffffffff1916145b806105cb57506105ca826118e7565b5b9050919050565b6060600080546105e190613222565b80601f016020809104026020016040519081016040528092919081815260200182805461060d90613222565b801561065a5780601f1061062f5761010080835404028352916020019161065a565b820191906000526020600020905b81548152906001019060200180831161063d57829003601f168201915b5050505050905090565b600061066f82611951565b6004600083815260200190815260200160002060009054906101000a900473ffffffffffffffffffffffffffffffffffffffff169050919050565b60006106b582610b37565b90508073ffffffffffffffffffffffffffffffffffffffff168373ffffffffffffffffffffffffffffffffffffffff1603610725576040517f08c379a000000000000000000000000000000000000000000000000000000000815260040161071c906132c5565b60405180910390fd5b8073ffffffffffffffffffffffffffffffffffffffff1661074461199c565b73ffffffffffffffffffffffffffffffffffffffff16148061077357506107728161076d61199c565b611853565b5b6107b2576040517f08c379a00000000000000000000000000000000000000000000000000000000081526004016107a990613357565b60405180910390fd5b6107bc83836119a4565b505050565b6000600954905090565b6107dc6107d661199c565b82611a5d565b61081b576040517f08c379a0000000000000000000000000000000000000000000000000000000008152600401610812906133e9565b60405180910390fd5b610826838383611af2565b505050565b61084683838360405180602001604052806000815250610fc6565b505050565b606060006108596007611deb565b905060008060005b83811015610901573373ffffffffffffffffffffffffffffffffffffffff16600b60006001846108919190613438565b815260200190815260200160002060010160009054906101000a900473ffffffffffffffffffffffffffffffffffffffff1673ffffffffffffffffffffffffffffffffffffffff16036108ee576001836108eb9190613438565b92505b80806108f99061346c565b915050610861565b5060008267ffffffffffffffff81111561091e5761091d612e5c565b5b60405190808252806020026020018201604052801561095757816020015b610944612927565b81526020019060019003908161093c5790505b50905060005b84811015610b2c573373ffffffffffffffffffffffffffffffffffffffff16600b600060018461098d9190613438565b815260200190815260200160002060010160009054906101000a900473ffffffffffffffffffffffffffffffffffffffff1673ffffffffffffffffffffffffffffffffffffffff1603610b195760006001826109e99190613438565b90506000600b60008381526020019081526020016000209050806040518060a0016040529081600082015481526020016001820160009054906101000a900473ffffffffffffffffffffffffffffffffffffffff1673ffffffffffffffffffffffffffffffffffffffff1673ffffffffffffffffffffffffffffffffffffffff1681526020016002820160009054906101000a900473ffffffffffffffffffffffffffffffffffffffff1673ffffffffffffffffffffffffffffffffffffffff1673ffffffffffffffffffffffffffffffffffffffff168152602001600382015481526020016004820160009054906101000a900460ff161515151581525050848681518110610afc57610afb6134b4565b5b6020026020010181905250600185610b149190613438565b945050505b8080610b249061346c565b91505061095d565b508094505050505090565b600080610b4383611df9565b9050600073ffffffffffffffffffffffffffffffffffffffff168173ffffffffffffffffffffffffffffffffffffffff1603610bb4576040517f08c379a0000000000000000000000000000000000000000000000000000000008152600401610bab9061352f565b60405180910390fd5b80915050919050565b60008073ffffffffffffffffffffffffffffffffffffffff168273ffffffffffffffffffffffffffffffffffffffff1603610c2d576040517f08c379a0000000000000000000000000000000000000000000000000000000008152600401610c24906135c1565b60405180910390fd5b600360008373ffffffffffffffffffffffffffffffffffffffff1673ffffffffffffffffffffffffffffffffffffffff168152602001908152602001600020549050919050565b6000610c806007611e36565b6000610c8c6007611deb565b9050610c983382611e4c565b610ca28184612069565b8091505092915050565b60606000610cba6007611deb565b90506000610cc86008611deb565b610cd26007611deb565b610cdc91906135e1565b90506000808267ffffffffffffffff811115610cfb57610cfa612e5c565b5b604051908082528060200260200182016040528015610d3457816020015b610d21612927565b815260200190600190039081610d195790505b50905060005b84811015610f09573073ffffffffffffffffffffffffffffffffffffffff16600b6000600184610d6a9190613438565b815260200190815260200160002060020160009054906101000a900473ffffffffffffffffffffffffffffffffffffffff1673ffffffffffffffffffffffffffffffffffffffff1603610ef6576000600182610dc69190613438565b90506000600b60008381526020019081526020016000209050806040518060a0016040529081600082015481526020016001820160009054906101000a900473ffffffffffffffffffffffffffffffffffffffff1673ffffffffffffffffffffffffffffffffffffffff1673ffffffffffffffffffffffffffffffffffffffff1681526020016002820160009054906101000a900473ffffffffffffffffffffffffffffffffffffffff1673ffffffffffffffffffffffffffffffffffffffff1673ffffffffffffffffffffffffffffffffffffffff168152602001600382015481526020016004820160009054906101000a900460ff161515151581525050848681518110610ed957610ed86134b4565b5b6020026020010181905250600185610ef19190613438565b945050505b8080610f019061346c565b915050610d3a565b508094505050505090565b606060018054610f2390613222565b80601f0160208091040260200160405190810160405280929190818152602001828054610f4f90613222565b8015610f9c5780601f10610f7157610100808354040283529160200191610f9c565b820191906000526020600020905b815481529060010190602001808311610f7f57829003601f168201915b5050505050905090565b610fb8610fb161199c565b838361226c565b5050565b8060098190555050565b610fd7610fd161199c565b83611a5d565b611016576040517f08c379a000000000000000000000000000000000000000000000000000000000815260040161100d906133e9565b60405180910390fd5b611022848484846123d8565b50505050565b6000600b6000838152602001908152602001600020600301549050803414611085576040517f08c379a000000000000000000000000000000000000000000000000000000000815260040161107c90613687565b60405180910390fd5b33600b600084815260200190815260200160002060010160006101000a81548173ffffffffffffffffffffffffffffffffffffffff021916908373ffffffffffffffffffffffffffffffffffffffff1602179055506001600b600084815260200190815260200160002060040160006101000a81548160ff0219169083151502179055506000600b600084815260200190815260200160002060020160006101000a81548173ffffffffffffffffffffffffffffffffffffffff021916908373ffffffffffffffffffffffffffffffffffffffff1602179055506111696008611e36565b611174303384611af2565b600a60009054906101000a900473ffffffffffffffffffffffffffffffffffffffff1673ffffffffffffffffffffffffffffffffffffffff166108fc6009549081150290604051600060405180830381858888f193505050501580156111de573d6000803e3d6000fd5b50600b600083815260200190815260200160002060010160009054906101000a900473ffffffffffffffffffffffffffffffffffffffff1673ffffffffffffffffffffffffffffffffffffffff166108fc349081150290604051600060405180830381858888f1935050505015801561125b573d6000803e3d6000fd5b505050565b6060600061126e6007611deb565b905060008060005b83811015611316573373ffffffffffffffffffffffffffffffffffffffff16600b60006001846112a69190613438565b815260200190815260200160002060020160009054906101000a900473ffffffffffffffffffffffffffffffffffffffff1673ffffffffffffffffffffffffffffffffffffffff1603611303576001836113009190613438565b92505b808061130e9061346c565b915050611276565b5060008267ffffffffffffffff81111561133357611332612e5c565b5b60405190808252806020026020018201604052801561136c57816020015b611359612927565b8152602001906001900390816113515790505b50905060005b84811015611541573373ffffffffffffffffffffffffffffffffffffffff16600b60006001846113a29190613438565b815260200190815260200160002060020160009054906101000a900473ffffffffffffffffffffffffffffffffffffffff1673ffffffffffffffffffffffffffffffffffffffff160361152e5760006001826113fe9190613438565b90506000600b60008381526020019081526020016000209050806040518060a0016040529081600082015481526020016001820160009054906101000a900473ffffffffffffffffffffffffffffffffffffffff1673ffffffffffffffffffffffffffffffffffffffff1673ffffffffffffffffffffffffffffffffffffffff1681526020016002820160009054906101000a900473ffffffffffffffffffffffffffffffffffffffff1673ffffffffffffffffffffffffffffffffffffffff1673ffffffffffffffffffffffffffffffffffffffff168152602001600382015481526020016004820160009054906101000a900460ff161515151581525050848681518110611511576115106134b4565b5b60200260200101819052506001856115299190613438565b945050505b80806115399061346c565b915050611372565b508094505050505090565b606061155782611951565b600060066000848152602001908152602001600020805461157790613222565b80601f01602080910402602001604051908101604052809291908181526020018280546115a390613222565b80156115f05780601f106115c5576101008083540402835291602001916115f0565b820191906000526020600020905b8154815290600101906020018083116115d357829003601f168201915b505050505090506000611601612434565b90506000815103611616578192505050611659565b60008251111561164b5780826040516020016116339291906136e3565b60405160208183030381529060405292505050611659565b6116548461244b565b925050505b919050565b3373ffffffffffffffffffffffffffffffffffffffff16600b600084815260200190815260200160002060020160009054906101000a900473ffffffffffffffffffffffffffffffffffffffff1673ffffffffffffffffffffffffffffffffffffffff1614611702576040517f08c379a00000000000000000000000000000000000000000000000000000000081526004016116f990613779565b60405180910390fd5b6009543414611746576040517f08c379a000000000000000000000000000000000000000000000000000000000815260040161173d9061380b565b60405180910390fd5b6000600b600084815260200190815260200160002060040160006101000a81548160ff02191690831515021790555080600b60008481526020019081526020016000206003018190555033600b600084815260200190815260200160002060010160006101000a81548173ffffffffffffffffffffffffffffffffffffffff021916908373ffffffffffffffffffffffffffffffffffffffff16021790555030600b600084815260200190815260200160002060020160006101000a81548173ffffffffffffffffffffffffffffffffffffffff021916908373ffffffffffffffffffffffffffffffffffffffff16021790555061184460086124b3565b61184f333084611af2565b5050565b6000600560008473ffffffffffffffffffffffffffffffffffffffff1673ffffffffffffffffffffffffffffffffffffffff16815260200190815260200160002060008373ffffffffffffffffffffffffffffffffffffffff1673ffffffffffffffffffffffffffffffffffffffff16815260200190815260200160002060009054906101000a900460ff16905092915050565b60007f01ffc9a7000000000000000000000000000000000000000000000000000000007bffffffffffffffffffffffffffffffffffffffffffffffffffffffff1916827bffffffffffffffffffffffffffffffffffffffffffffffffffffffff1916149050919050565b61195a8161250f565b611999576040517f08c379a00000000000000000000000000000000000000000000000000000000081526004016119909061352f565b60405180910390fd5b50565b600033905090565b816004600083815260200190815260200160002060006101000a81548173ffffffffffffffffffffffffffffffffffffffff021916908373ffffffffffffffffffffffffffffffffffffffff160217905550808273ffffffffffffffffffffffffffffffffffffffff16611a1783610b37565b73ffffffffffffffffffffffffffffffffffffffff167f8c5be1e5ebec7d5bd14f71427d1e84f3dd0314c0f7b2291e5b200ac8c7c3b92560405160405180910390a45050565b600080611a6983610b37565b90508073ffffffffffffffffffffffffffffffffffffffff168473ffffffffffffffffffffffffffffffffffffffff161480611aab5750611aaa8185611853565b5b80611ae957508373ffffffffffffffffffffffffffffffffffffffff16611ad184610664565b73ffffffffffffffffffffffffffffffffffffffff16145b91505092915050565b8273ffffffffffffffffffffffffffffffffffffffff16611b1282610b37565b73ffffffffffffffffffffffffffffffffffffffff1614611b68576040517f08c379a0000000000000000000000000000000000000000000000000000000008152600401611b5f9061389d565b60405180910390fd5b600073ffffffffffffffffffffffffffffffffffffffff168273ffffffffffffffffffffffffffffffffffffffff1603611bd7576040517f08c379a0000000000000000000000000000000000000000000000000000000008152600401611bce9061392f565b60405180910390fd5b611be48383836001612550565b8273ffffffffffffffffffffffffffffffffffffffff16611c0482610b37565b73ffffffffffffffffffffffffffffffffffffffff1614611c5a576040517f08c379a0000000000000000000000000000000000000000000000000000000008152600401611c519061389d565b60405180910390fd5b6004600082815260200190815260200160002060006101000a81549073ffffffffffffffffffffffffffffffffffffffff02191690556001600360008573ffffffffffffffffffffffffffffffffffffffff1673ffffffffffffffffffffffffffffffffffffffff168152602001908152602001600020600082825403925050819055506001600360008473ffffffffffffffffffffffffffffffffffffffff1673ffffffffffffffffffffffffffffffffffffffff16815260200190815260200160002060008282540192505081905550816002600083815260200190815260200160002060006101000a81548173ffffffffffffffffffffffffffffffffffffffff021916908373ffffffffffffffffffffffffffffffffffffffff160217905550808273ffffffffffffffffffffffffffffffffffffffff168473ffffffffffffffffffffffffffffffffffffffff167fddf252ad1be2c89b69c2b068fc378daa952ba7f163c4a11628f55a4df523b3ef60405160405180910390a4611de68383836001612556565b505050565b600081600001549050919050565b60006002600083815260200190815260200160002060009054906101000a900473ffffffffffffffffffffffffffffffffffffffff169050919050565b6001816000016000828254019250508190555050565b600073ffffffffffffffffffffffffffffffffffffffff168273ffffffffffffffffffffffffffffffffffffffff1603611ebb576040517f08c379a0000000000000000000000000000000000000000000000000000000008152600401611eb29061399b565b60405180910390fd5b611ec48161250f565b15611f04576040517f08c379a0000000000000000000000000000000000000000000000000000000008152600401611efb90613a07565b60405180910390fd5b611f12600083836001612550565b611f1b8161250f565b15611f5b576040517f08c379a0000000000000000000000000000000000000000000000000000000008152600401611f5290613a07565b60405180910390fd5b6001600360008473ffffffffffffffffffffffffffffffffffffffff1673ffffffffffffffffffffffffffffffffffffffff16815260200190815260200160002060008282540192505081905550816002600083815260200190815260200160002060006101000a81548173ffffffffffffffffffffffffffffffffffffffff021916908373ffffffffffffffffffffffffffffffffffffffff160217905550808273ffffffffffffffffffffffffffffffffffffffff16600073ffffffffffffffffffffffffffffffffffffffff167fddf252ad1be2c89b69c2b068fc378daa952ba7f163c4a11628f55a4df523b3ef60405160405180910390a4612065600083836001612556565b5050565b600081116120ac576040517f08c379a00000000000000000000000000000000000000000000000000000000081526004016120a390613a73565b60405180910390fd5b60095434146120f0576040517f08c379a00000000000000000000000000000000000000000000000000000000081526004016120e79061380b565b60405180910390fd5b6040518060a001604052808381526020013373ffffffffffffffffffffffffffffffffffffffff1681526020013073ffffffffffffffffffffffffffffffffffffffff16815260200182815260200160001515815250600b60008481526020019081526020016000206000820151816000015560208201518160010160006101000a81548173ffffffffffffffffffffffffffffffffffffffff021916908373ffffffffffffffffffffffffffffffffffffffff16021790555060408201518160020160006101000a81548173ffffffffffffffffffffffffffffffffffffffff021916908373ffffffffffffffffffffffffffffffffffffffff1602179055506060820151816003015560808201518160040160006101000a81548160ff021916908315150217905550905050612229333084611af2565b817f12660f536c114198092e438c69e73fd9e7dfe052a62864fae7ddc8b405d1b74e33308460006040516122609493929190613a93565b60405180910390a25050565b8173ffffffffffffffffffffffffffffffffffffffff168373ffffffffffffffffffffffffffffffffffffffff16036122da576040517f08c379a00000000000000000000000000000000000000000000000000000000081526004016122d190613b24565b60405180910390fd5b80600560008573ffffffffffffffffffffffffffffffffffffffff1673ffffffffffffffffffffffffffffffffffffffff16815260200190815260200160002060008473ffffffffffffffffffffffffffffffffffffffff1673ffffffffffffffffffffffffffffffffffffffff16815260200190815260200160002060006101000a81548160ff0219169083151502179055508173ffffffffffffffffffffffffffffffffffffffff168373ffffffffffffffffffffffffffffffffffffffff167f17307eab39ab6107e8899845ad3d59bd9653f200f220920489ca2b5937696c31836040516123cb9190612a38565b60405180910390a3505050565b6123e3848484611af2565b6123ef8484848461255c565b61242e576040517f08c379a000000000000000000000000000000000000000000000000000000000815260040161242590613bb6565b60405180910390fd5b50505050565b606060405180602001604052806000815250905090565b606061245682611951565b6000612460612434565b9050600081511161248057604051806020016040528060008152506124ab565b8061248a846126e3565b60405160200161249b9291906136e3565b6040516020818303038152906040525b915050919050565b600081600001549050600081116124ff576040517f08c379a00000000000000000000000000000000000000000000000000000000081526004016124f690613c22565b60405180910390fd5b6001810382600001819055505050565b60008073ffffffffffffffffffffffffffffffffffffffff1661253183611df9565b73ffffffffffffffffffffffffffffffffffffffff1614159050919050565b50505050565b50505050565b600061257d8473ffffffffffffffffffffffffffffffffffffffff166127b1565b156126d6578373ffffffffffffffffffffffffffffffffffffffff1663150b7a026125a661199c565b8786866040518563ffffffff1660e01b81526004016125c89493929190613c97565b6020604051808303816000875af192505050801561260457506040513d601f19601f820116820180604052508101906126019190613cf8565b60015b612686573d8060008114612634576040519150601f19603f3d011682016040523d82523d6000602084013e612639565b606091505b50600081510361267e576040517f08c379a000000000000000000000000000000000000000000000000000000000815260040161267590613bb6565b60405180910390fd5b805181602001fd5b63150b7a0260e01b7bffffffffffffffffffffffffffffffffffffffffffffffffffffffff1916817bffffffffffffffffffffffffffffffffffffffffffffffffffffffff1916149150506126db565b600190505b949350505050565b6060600060016126f2846127d4565b01905060008167ffffffffffffffff81111561271157612710612e5c565b5b6040519080825280601f01601f1916602001820160405280156127435781602001600182028036833780820191505090505b509050600082602001820190505b6001156127a6578080600190039150507f3031323334353637383961626364656600000000000000000000000000000000600a86061a8153600a858161279a57612799613d25565b5b04945060008503612751575b819350505050919050565b6000808273ffffffffffffffffffffffffffffffffffffffff163b119050919050565b600080600090507a184f03e93ff9f4daa797ed6e38ed64bf6a1f0100000000000000008310612832577a184f03e93ff9f4daa797ed6e38ed64bf6a1f010000000000000000838161282857612827613d25565b5b0492506040810190505b6d04ee2d6d415b85acef8100000000831061286f576d04ee2d6d415b85acef8100000000838161286557612864613d25565b5b0492506020810190505b662386f26fc10000831061289e57662386f26fc10000838161289457612893613d25565b5b0492506010810190505b6305f5e10083106128c7576305f5e10083816128bd576128bc613d25565b5b0492506008810190505b61271083106128ec5761271083816128e2576128e1613d25565b5b0492506004810190505b6064831061290f576064838161290557612904613d25565b5b0492506002810190505b600a831061291e576001810190505b80915050919050565b6040518060a0016040528060008152602001600073ffffffffffffffffffffffffffffffffffffffff168152602001600073ffffffffffffffffffffffffffffffffffffffff168152602001600081526020016000151581525090565b6000604051905090565b600080fd5b600080fd5b60007fffffffff0000000000000000000000000000000000000000000000000000000082169050919050565b6129cd81612998565b81146129d857600080fd5b50565b6000813590506129ea816129c4565b92915050565b600060208284031215612a0657612a0561298e565b5b6000612a14848285016129db565b91505092915050565b60008115159050919050565b612a3281612a1d565b82525050565b6000602082019050612a4d6000830184612a29565b92915050565b600081519050919050565b600082825260208201905092915050565b60005b83811015612a8d578082015181840152602081019050612a72565b60008484015250505050565b6000601f19601f8301169050919050565b6000612ab582612a53565b612abf8185612a5e565b9350612acf818560208601612a6f565b612ad881612a99565b840191505092915050565b60006020820190508181036000830152612afd8184612aaa565b905092915050565b6000819050919050565b612b1881612b05565b8114612b2357600080fd5b50565b600081359050612b3581612b0f565b92915050565b600060208284031215612b5157612b5061298e565b5b6000612b5f84828501612b26565b91505092915050565b600073ffffffffffffffffffffffffffffffffffffffff82169050919050565b6000612b9382612b68565b9050919050565b612ba381612b88565b82525050565b6000602082019050612bbe6000830184612b9a565b92915050565b612bcd81612b88565b8114612bd857600080fd5b50565b600081359050612bea81612bc4565b92915050565b60008060408385031215612c0757612c0661298e565b5b6000612c1585828601612bdb565b9250506020612c2685828601612b26565b9150509250929050565b612c3981612b05565b82525050565b6000602082019050612c546000830184612c30565b92915050565b600080600060608486031215612c7357612c7261298e565b5b6000612c8186828701612bdb565b9350506020612c9286828701612bdb565b9250506040612ca386828701612b26565b9150509250925092565b600081519050919050565b600082825260208201905092915050565b6000819050602082019050919050565b612ce281612b05565b82525050565b6000612cf382612b68565b9050919050565b612d0381612ce8565b82525050565b612d1281612a1d565b82525050565b60a082016000820151612d2e6000850182612cd9565b506020820151612d416020850182612cfa565b506040820151612d546040850182612cfa565b506060820151612d676060850182612cd9565b506080820151612d7a6080850182612d09565b50505050565b6000612d8c8383612d18565b60a08301905092915050565b6000602082019050919050565b6000612db082612cad565b612dba8185612cb8565b9350612dc583612cc9565b8060005b83811015612df6578151612ddd8882612d80565b9750612de883612d98565b925050600181019050612dc9565b5085935050505092915050565b60006020820190508181036000830152612e1d8184612da5565b905092915050565b600060208284031215612e3b57612e3a61298e565b5b6000612e4984828501612bdb565b91505092915050565b600080fd5b600080fd5b7f4e487b7100000000000000000000000000000000000000000000000000000000600052604160045260246000fd5b612e9482612a99565b810181811067ffffffffffffffff82111715612eb357612eb2612e5c565b5b80604052505050565b6000612ec6612984565b9050612ed28282612e8b565b919050565b600067ffffffffffffffff821115612ef257612ef1612e5c565b5b612efb82612a99565b9050602081019050919050565b82818337600083830152505050565b6000612f2a612f2584612ed7565b612ebc565b905082815260208101848484011115612f4657612f45612e57565b5b612f51848285612f08565b509392505050565b600082601f830112612f6e57612f6d612e52565b5b8135612f7e848260208601612f17565b91505092915050565b60008060408385031215612f9e57612f9d61298e565b5b600083013567ffffffffffffffff811115612fbc57612fbb612993565b5b612fc885828601612f59565b9250506020612fd985828601612b26565b9150509250929050565b612fec81612a1d565b8114612ff757600080fd5b50565b60008135905061300981612fe3565b92915050565b600080604083850312156130265761302561298e565b5b600061303485828601612bdb565b925050602061304585828601612ffa565b9150509250929050565b600067ffffffffffffffff82111561306a57613069612e5c565b5b61307382612a99565b9050602081019050919050565b600061309361308e8461304f565b612ebc565b9050828152602081018484840111156130af576130ae612e57565b5b6130ba848285612f08565b509392505050565b600082601f8301126130d7576130d6612e52565b5b81356130e7848260208601613080565b91505092915050565b6000806000806080858703121561310a5761310961298e565b5b600061311887828801612bdb565b945050602061312987828801612bdb565b935050604061313a87828801612b26565b925050606085013567ffffffffffffffff81111561315b5761315a612993565b5b613167878288016130c2565b91505092959194509250565b6000806040838503121561318a5761318961298e565b5b600061319885828601612b26565b92505060206131a985828601612b26565b9150509250929050565b600080604083850312156131ca576131c961298e565b5b60006131d885828601612bdb565b92505060206131e985828601612bdb565b9150509250929050565b7f4e487b7100000000000000000000000000000000000000000000000000000000600052602260045260246000fd5b6000600282049050600182168061323a57607f821691505b60208210810361324d5761324c6131f3565b5b50919050565b7f4552433732313a20617070726f76616c20746f2063757272656e74206f776e6560008201527f7200000000000000000000000000000000000000000000000000000000000000602082015250565b60006132af602183612a5e565b91506132ba82613253565b604082019050919050565b600060208201905081810360008301526132de816132a2565b9050919050565b7f4552433732313a20617070726f76652063616c6c6572206973206e6f7420746f60008201527f6b656e206f776e6572206f7220617070726f76656420666f7220616c6c000000602082015250565b6000613341603d83612a5e565b915061334c826132e5565b604082019050919050565b6000602082019050818103600083015261337081613334565b9050919050565b7f4552433732313a2063616c6c6572206973206e6f7420746f6b656e206f776e6560008201527f72206f7220617070726f76656400000000000000000000000000000000000000602082015250565b60006133d3602d83612a5e565b91506133de82613377565b604082019050919050565b60006020820190508181036000830152613402816133c6565b9050919050565b7f4e487b7100000000000000000000000000000000000000000000000000000000600052601160045260246000fd5b600061344382612b05565b915061344e83612b05565b925082820190508082111561346657613465613409565b5b92915050565b600061347782612b05565b91507fffffffffffffffffffffffffffffffffffffffffffffffffffffffffffffffff82036134a9576134a8613409565b5b600182019050919050565b7f4e487b7100000000000000000000000000000000000000000000000000000000600052603260045260246000fd5b7f4552433732313a20696e76616c696420746f6b656e2049440000000000000000600082015250565b6000613519601883612a5e565b9150613524826134e3565b602082019050919050565b600060208201905081810360008301526135488161350c565b9050919050565b7f4552433732313a2061646472657373207a65726f206973206e6f74206120766160008201527f6c6964206f776e65720000000000000000000000000000000000000000000000602082015250565b60006135ab602983612a5e565b91506135b68261354f565b604082019050919050565b600060208201905081810360008301526135da8161359e565b9050919050565b60006135ec82612b05565b91506135f783612b05565b925082820390508181111561360f5761360e613409565b5b92915050565b7f506c65617365207375626d697474207468652061736b696e672070726963652060008201527f696e206f7264657220746f20636f6d706c657465207468697320616374696f6e602082015250565b6000613671604083612a5e565b915061367c82613615565b604082019050919050565b600060208201905081810360008301526136a081613664565b9050919050565b600081905092915050565b60006136bd82612a53565b6136c781856136a7565b93506136d7818560208601612a6f565b80840191505092915050565b60006136ef82856136b2565b91506136fb82846136b2565b91508190509392505050565b7f4f6e6c79206974656d206f776e65722063616e20706572666f726d207468697360008201527f206f7065726174696f6e00000000000000000000000000000000000000000000602082015250565b6000613763602a83612a5e565b915061376e82613707565b604082019050919050565b6000602082019050818103600083015261379281613756565b9050919050565b7f5072696365206d75737420626520657175616c20746f206c697374696e67207060008201527f7269636500000000000000000000000000000000000000000000000000000000602082015250565b60006137f5602483612a5e565b915061380082613799565b604082019050919050565b60006020820190508181036000830152613824816137e8565b9050919050565b7f4552433732313a207472616e736665722066726f6d20696e636f72726563742060008201527f6f776e6572000000000000000000000000000000000000000000000000000000602082015250565b6000613887602583612a5e565b91506138928261382b565b604082019050919050565b600060208201905081810360008301526138b68161387a565b9050919050565b7f4552433732313a207472616e7366657220746f20746865207a65726f2061646460008201527f7265737300000000000000000000000000000000000000000000000000000000602082015250565b6000613919602483612a5e565b9150613924826138bd565b604082019050919050565b600060208201905081810360008301526139488161390c565b9050919050565b7f4552433732313a206d696e7420746f20746865207a65726f2061646472657373600082015250565b6000613985602083612a5e565b91506139908261394f565b602082019050919050565b600060208201905081810360008301526139b481613978565b9050919050565b7f4552433732313a20746f6b656e20616c7265616479206d696e74656400000000600082015250565b60006139f1601c83612a5e565b91506139fc826139bb565b602082019050919050565b60006020820190508181036000830152613a20816139e4565b9050919050565b7f5072696365206d757374206265206174206c6561737420310000000000000000600082015250565b6000613a5d601883612a5e565b9150613a6882613a27565b602082019050919050565b60006020820190508181036000830152613a8c81613a50565b9050919050565b6000608082019050613aa86000830187612b9a565b613ab56020830186612b9a565b613ac26040830185612c30565b613acf6060830184612a29565b95945050505050565b7f4552433732313a20617070726f766520746f2063616c6c657200000000000000600082015250565b6000613b0e601983612a5e565b9150613b1982613ad8565b602082019050919050565b60006020820190508181036000830152613b3d81613b01565b9050919050565b7f4552433732313a207472616e7366657220746f206e6f6e20455243373231526560008201527f63656976657220696d706c656d656e7465720000000000000000000000000000602082015250565b6000613ba0603283612a5e565b9150613bab82613b44565b604082019050919050565b60006020820190508181036000830152613bcf81613b93565b9050919050565b7f436f756e7465723a2064656372656d656e74206f766572666c6f770000000000600082015250565b6000613c0c601b83612a5e565b9150613c1782613bd6565b602082019050919050565b60006020820190508181036000830152613c3b81613bff565b9050919050565b600081519050919050565b600082825260208201905092915050565b6000613c6982613c42565b613c738185613c4d565b9350613c83818560208601612a6f565b613c8c81612a99565b840191505092915050565b6000608082019050613cac6000830187612b9a565b613cb96020830186612b9a565b613cc66040830185612c30565b8181036060830152613cd88184613c5e565b905095945050505050565b600081519050613cf2816129c4565b92915050565b600060208284031215613d0e57613d0d61298e565b5b6000613d1c84828501613ce3565b91505092915050565b7f4e487b7100000000000000000000000000000000000000000000000000000000600052601260045260246000fdfea264697066735822122076cfcb05db85d2d7e8d03fac16251de8a42b5fb96a17d662510278f21e01fae564736f6c63430008120033",
  "linkReferences": {},
  "deployedLinkReferences": {}
}